{
  "contractName": "SmartContract",
  "abi": [
    {
      "inputs": [
        {
          "internalType": "string",
          "name": "_name",
          "type": "string"
        },
        {
          "internalType": "string",
          "name": "_symbol",
          "type": "string"
        },
        {
          "internalType": "string",
          "name": "_initBaseURI",
          "type": "string"
        }
      ],
      "stateMutability": "nonpayable",
      "type": "constructor"
    },
    {
      "anonymous": false,
      "inputs": [
        {
          "indexed": true,
          "internalType": "address",
          "name": "owner",
          "type": "address"
        },
        {
          "indexed": true,
          "internalType": "address",
          "name": "approved",
          "type": "address"
        },
        {
          "indexed": true,
          "internalType": "uint256",
          "name": "tokenId",
          "type": "uint256"
        }
      ],
      "name": "Approval",
      "type": "event"
    },
    {
      "anonymous": false,
      "inputs": [
        {
          "indexed": true,
          "internalType": "address",
          "name": "owner",
          "type": "address"
        },
        {
          "indexed": true,
          "internalType": "address",
          "name": "operator",
          "type": "address"
        },
        {
          "indexed": false,
          "internalType": "bool",
          "name": "approved",
          "type": "bool"
        }
      ],
      "name": "ApprovalForAll",
      "type": "event"
    },
    {
      "anonymous": false,
      "inputs": [
        {
          "indexed": true,
          "internalType": "address",
          "name": "previousOwner",
          "type": "address"
        },
        {
          "indexed": true,
          "internalType": "address",
          "name": "newOwner",
          "type": "address"
        }
      ],
      "name": "OwnershipTransferred",
      "type": "event"
    },
    {
      "anonymous": false,
      "inputs": [
        {
          "indexed": true,
          "internalType": "address",
          "name": "from",
          "type": "address"
        },
        {
          "indexed": true,
          "internalType": "address",
          "name": "to",
          "type": "address"
        },
        {
          "indexed": true,
          "internalType": "uint256",
          "name": "tokenId",
          "type": "uint256"
        }
      ],
      "name": "Transfer",
      "type": "event"
    },
    {
      "inputs": [
        {
          "internalType": "address",
          "name": "to",
          "type": "address"
        },
        {
          "internalType": "uint256",
          "name": "tokenId",
          "type": "uint256"
        }
      ],
      "name": "approve",
      "outputs": [],
      "stateMutability": "nonpayable",
      "type": "function"
    },
    {
      "inputs": [
        {
          "internalType": "address",
          "name": "owner",
          "type": "address"
        }
      ],
      "name": "balanceOf",
      "outputs": [
        {
          "internalType": "uint256",
          "name": "",
          "type": "uint256"
        }
      ],
      "stateMutability": "view",
      "type": "function",
      "constant": true
    },
    {
      "inputs": [],
      "name": "baseExtension",
      "outputs": [
        {
          "internalType": "string",
          "name": "",
          "type": "string"
        }
      ],
      "stateMutability": "view",
      "type": "function",
      "constant": true
    },
    {
      "inputs": [],
      "name": "baseURI",
      "outputs": [
        {
          "internalType": "string",
          "name": "",
          "type": "string"
        }
      ],
      "stateMutability": "view",
      "type": "function",
      "constant": true
    },
    {
      "inputs": [],
      "name": "cost",
      "outputs": [
        {
          "internalType": "uint256",
          "name": "",
          "type": "uint256"
        }
      ],
      "stateMutability": "view",
      "type": "function",
      "constant": true
    },
    {
      "inputs": [
        {
          "internalType": "uint256",
          "name": "tokenId",
          "type": "uint256"
        }
      ],
      "name": "getApproved",
      "outputs": [
        {
          "internalType": "address",
          "name": "",
          "type": "address"
        }
      ],
      "stateMutability": "view",
      "type": "function",
      "constant": true
    },
    {
      "inputs": [
        {
          "internalType": "address",
          "name": "owner",
          "type": "address"
        },
        {
          "internalType": "address",
          "name": "operator",
          "type": "address"
        }
      ],
      "name": "isApprovedForAll",
      "outputs": [
        {
          "internalType": "bool",
          "name": "",
          "type": "bool"
        }
      ],
      "stateMutability": "view",
      "type": "function",
      "constant": true
    },
    {
      "inputs": [],
      "name": "maxMintAmount",
      "outputs": [
        {
          "internalType": "uint256",
          "name": "",
          "type": "uint256"
        }
      ],
      "stateMutability": "view",
      "type": "function",
      "constant": true
    },
    {
      "inputs": [],
      "name": "maxSupply",
      "outputs": [
        {
          "internalType": "uint256",
          "name": "",
          "type": "uint256"
        }
      ],
      "stateMutability": "view",
      "type": "function",
      "constant": true
    },
    {
      "inputs": [],
      "name": "name",
      "outputs": [
        {
          "internalType": "string",
          "name": "",
          "type": "string"
        }
      ],
      "stateMutability": "view",
      "type": "function",
      "constant": true
    },
    {
      "inputs": [],
      "name": "owner",
      "outputs": [
        {
          "internalType": "address",
          "name": "",
          "type": "address"
        }
      ],
      "stateMutability": "view",
      "type": "function",
      "constant": true
    },
    {
      "inputs": [
        {
          "internalType": "uint256",
          "name": "tokenId",
          "type": "uint256"
        }
      ],
      "name": "ownerOf",
      "outputs": [
        {
          "internalType": "address",
          "name": "",
          "type": "address"
        }
      ],
      "stateMutability": "view",
      "type": "function",
      "constant": true
    },
    {
      "inputs": [],
      "name": "paused",
      "outputs": [
        {
          "internalType": "bool",
          "name": "",
          "type": "bool"
        }
      ],
      "stateMutability": "view",
      "type": "function",
      "constant": true
    },
    {
      "inputs": [],
      "name": "renounceOwnership",
      "outputs": [],
      "stateMutability": "nonpayable",
      "type": "function"
    },
    {
      "inputs": [
        {
          "internalType": "address",
          "name": "from",
          "type": "address"
        },
        {
          "internalType": "address",
          "name": "to",
          "type": "address"
        },
        {
          "internalType": "uint256",
          "name": "tokenId",
          "type": "uint256"
        }
      ],
      "name": "safeTransferFrom",
      "outputs": [],
      "stateMutability": "nonpayable",
      "type": "function"
    },
    {
      "inputs": [
        {
          "internalType": "address",
          "name": "from",
          "type": "address"
        },
        {
          "internalType": "address",
          "name": "to",
          "type": "address"
        },
        {
          "internalType": "uint256",
          "name": "tokenId",
          "type": "uint256"
        },
        {
          "internalType": "bytes",
          "name": "_data",
          "type": "bytes"
        }
      ],
      "name": "safeTransferFrom",
      "outputs": [],
      "stateMutability": "nonpayable",
      "type": "function"
    },
    {
      "inputs": [
        {
          "internalType": "address",
          "name": "operator",
          "type": "address"
        },
        {
          "internalType": "bool",
          "name": "approved",
          "type": "bool"
        }
      ],
      "name": "setApprovalForAll",
      "outputs": [],
      "stateMutability": "nonpayable",
      "type": "function"
    },
    {
      "inputs": [
        {
          "internalType": "bytes4",
          "name": "interfaceId",
          "type": "bytes4"
        }
      ],
      "name": "supportsInterface",
      "outputs": [
        {
          "internalType": "bool",
          "name": "",
          "type": "bool"
        }
      ],
      "stateMutability": "view",
      "type": "function",
      "constant": true
    },
    {
      "inputs": [],
      "name": "symbol",
      "outputs": [
        {
          "internalType": "string",
          "name": "",
          "type": "string"
        }
      ],
      "stateMutability": "view",
      "type": "function",
      "constant": true
    },
    {
      "inputs": [
        {
          "internalType": "uint256",
          "name": "index",
          "type": "uint256"
        }
      ],
      "name": "tokenByIndex",
      "outputs": [
        {
          "internalType": "uint256",
          "name": "",
          "type": "uint256"
        }
      ],
      "stateMutability": "view",
      "type": "function",
      "constant": true
    },
    {
      "inputs": [
        {
          "internalType": "address",
          "name": "owner",
          "type": "address"
        },
        {
          "internalType": "uint256",
          "name": "index",
          "type": "uint256"
        }
      ],
      "name": "tokenOfOwnerByIndex",
      "outputs": [
        {
          "internalType": "uint256",
          "name": "",
          "type": "uint256"
        }
      ],
      "stateMutability": "view",
      "type": "function",
      "constant": true
    },
    {
      "inputs": [],
      "name": "totalSupply",
      "outputs": [
        {
          "internalType": "uint256",
          "name": "",
          "type": "uint256"
        }
      ],
      "stateMutability": "view",
      "type": "function",
      "constant": true
    },
    {
      "inputs": [
        {
          "internalType": "address",
          "name": "from",
          "type": "address"
        },
        {
          "internalType": "address",
          "name": "to",
          "type": "address"
        },
        {
          "internalType": "uint256",
          "name": "tokenId",
          "type": "uint256"
        }
      ],
      "name": "transferFrom",
      "outputs": [],
      "stateMutability": "nonpayable",
      "type": "function"
    },
    {
      "inputs": [
        {
          "internalType": "address",
          "name": "newOwner",
          "type": "address"
        }
      ],
      "name": "transferOwnership",
      "outputs": [],
      "stateMutability": "nonpayable",
      "type": "function"
    },
    {
      "inputs": [
        {
          "internalType": "address",
          "name": "_to",
          "type": "address"
        },
        {
          "internalType": "uint256",
          "name": "_mintAmount",
          "type": "uint256"
        }
      ],
      "name": "mint",
      "outputs": [],
      "stateMutability": "payable",
      "type": "function",
      "payable": true
    },
    {
      "inputs": [
        {
          "internalType": "address",
          "name": "_owner",
          "type": "address"
        }
      ],
      "name": "walletOfOwner",
      "outputs": [
        {
          "internalType": "uint256[]",
          "name": "",
          "type": "uint256[]"
        }
      ],
      "stateMutability": "view",
      "type": "function",
      "constant": true
    },
    {
      "inputs": [
        {
          "internalType": "uint256",
          "name": "tokenId",
          "type": "uint256"
        }
      ],
      "name": "tokenURI",
      "outputs": [
        {
          "internalType": "string",
          "name": "",
          "type": "string"
        }
      ],
      "stateMutability": "view",
      "type": "function",
      "constant": true
    },
    {
      "inputs": [
        {
          "internalType": "uint256",
          "name": "_newCost",
          "type": "uint256"
        }
      ],
      "name": "setCost",
      "outputs": [],
      "stateMutability": "nonpayable",
      "type": "function"
    },
    {
      "inputs": [
        {
          "internalType": "uint256",
          "name": "_newmaxMintAmount",
          "type": "uint256"
        }
      ],
      "name": "setmaxMintAmount",
      "outputs": [],
      "stateMutability": "nonpayable",
      "type": "function"
    },
    {
      "inputs": [
        {
          "internalType": "string",
          "name": "_newBaseURI",
          "type": "string"
        }
      ],
      "name": "setBaseURI",
      "outputs": [],
      "stateMutability": "nonpayable",
      "type": "function"
    },
    {
      "inputs": [
        {
          "internalType": "string",
          "name": "_newBaseExtension",
          "type": "string"
        }
      ],
      "name": "setBaseExtension",
      "outputs": [],
      "stateMutability": "nonpayable",
      "type": "function"
    },
    {
      "inputs": [
        {
          "internalType": "bool",
          "name": "_state",
          "type": "bool"
        }
      ],
      "name": "pause",
      "outputs": [],
      "stateMutability": "nonpayable",
      "type": "function"
    },
    {
      "inputs": [],
      "name": "withdraw",
      "outputs": [],
      "stateMutability": "payable",
      "type": "function",
      "payable": true
    }
  ],
  "bytecode": "0x60c06040526005608081905264173539b7b760d91b60a09081526200002891600c919062000842565b5066470de4df820000600d55612710600e556014600f556010805460ff191690553480156200005657600080fd5b50604051620030f8380380620030f88339810160408190526200007991620009a2565b8251839083906200009290600090602085019062000842565b508051620000a890600190602084019062000842565b505050620000c5620000bf620000e660201b60201c565b620000ea565b620000d0816200013c565b620000dd336014620001a4565b50505062000ccf565b3390565b600a80546001600160a01b038381166001600160a01b0319831681179093556040519116919082907f8be0079c531659141344cd1fd0a4f28419497f9722a3daafe3b4186f6b6457e090600090a35050565b62000146620000e6565b6001600160a01b0316620001596200027a565b6001600160a01b0316146200018b5760405162461bcd60e51b8152600401620001829062000b8d565b60405180910390fd5b8051620001a090600b90602084019062000842565b5050565b6000620001b062000289565b60105490915060ff1615620001c457600080fd5b60008211620001d257600080fd5b600f54821115620001e257600080fd5b600e54620001f1838362000bc2565b1115620001fd57600080fd5b620002076200027a565b6001600160a01b0316336001600160a01b0316146200023d5781600d5462000230919062000bdd565b3410156200023d57600080fd5b60015b82811162000274576200025f8462000259838562000bc2565b6200028f565b806200026b8162000c85565b91505062000240565b50505050565b600a546001600160a01b031690565b60085490565b620001a0828260405180602001604052806000815250620002b160201b60201c565b620002bd8383620002f0565b620002cc6000848484620003db565b620002eb5760405162461bcd60e51b8152600401620001829062000a85565b505050565b6001600160a01b038216620003195760405162461bcd60e51b8152600401620001829062000b58565b620003248162000514565b15620003445760405162461bcd60e51b8152600401620001829062000ad7565b620003526000838362000531565b6001600160a01b03821660009081526003602052604081208054600192906200037d90849062000bc2565b909155505060008181526002602052604080822080546001600160a01b0319166001600160a01b03861690811790915590518392907fddf252ad1be2c89b69c2b068fc378daa952ba7f163c4a11628f55a4df523b3ef908290a45050565b6000620003fc846001600160a01b0316620005d560201b62000f911760201c565b1562000508576001600160a01b03841663150b7a026200041b620000e6565b8786866040518563ffffffff1660e01b81526004016200043f949392919062000a2f565b602060405180830381600087803b1580156200045a57600080fd5b505af19250505080156200048d575060408051601f3d908101601f191682019092526200048a9181019062000971565b60015b620004ed573d808015620004be576040519150601f19603f3d011682016040523d82523d6000602084013e620004c3565b606091505b508051620004e55760405162461bcd60e51b8152600401620001829062000a85565b805181602001fd5b6001600160e01b031916630a85bd0160e11b1490506200050c565b5060015b949350505050565b6000908152600260205260409020546001600160a01b0316151590565b62000549838383620002eb60201b620007b11760201c565b6001600160a01b03831662000569576200056381620005db565b6200058f565b816001600160a01b0316836001600160a01b0316146200058f576200058f83826200061f565b6001600160a01b038216620005af57620005a981620006cc565b620002eb565b826001600160a01b0316826001600160a01b031614620002eb57620002eb8282620007aa565b3b151590565b600880546000838152600960205260408120829055600182018355919091527ff3f7a9fe364faab93b216da50a3214154f22a0a2b415b23a84c8169e8b636ee30155565b600060016200063984620007fb60201b62000c111760201c565b62000645919062000bff565b60008381526007602052604090205490915080821462000699576001600160a01b03841660009081526006602090815260408083208584528252808320548484528184208190558352600790915290208190555b5060009182526007602090815260408084208490556001600160a01b039094168352600681528383209183525290812055565b600854600090620006e09060019062000bff565b600083815260096020526040812054600880549394509092849081106200071757634e487b7160e01b600052603260045260246000fd5b9060005260206000200154905080600883815481106200074757634e487b7160e01b600052603260045260246000fd5b60009182526020808320909101929092558281526009909152604080822084905585825281205560088054806200078e57634e487b7160e01b600052603160045260246000fd5b6001900381819060005260206000200160009055905550505050565b6000620007c283620007fb60201b62000c111760201c565b6001600160a01b039093166000908152600660209081526040808320868452825280832085905593825260079052919091209190915550565b60006001600160a01b038216620008265760405162461bcd60e51b8152600401620001829062000b0e565b506001600160a01b031660009081526003602052604090205490565b828054620008509062000c48565b90600052602060002090601f016020900481019282620008745760008555620008bf565b82601f106200088f57805160ff1916838001178555620008bf565b82800160010185558215620008bf579182015b82811115620008bf578251825591602001919060010190620008a2565b50620008cd929150620008d1565b5090565b5b80821115620008cd5760008155600101620008d2565b600082601f830112620008f9578081fd5b81516001600160401b038082111562000916576200091662000cb9565b604051601f8301601f1916810160200182811182821017156200093d576200093d62000cb9565b60405282815284830160200186101562000955578384fd5b6200096883602083016020880162000c19565b95945050505050565b60006020828403121562000983578081fd5b81516001600160e01b0319811681146200099b578182fd5b9392505050565b600080600060608486031215620009b7578182fd5b83516001600160401b0380821115620009ce578384fd5b620009dc87838801620008e8565b94506020860151915080821115620009f2578384fd5b62000a0087838801620008e8565b9350604086015191508082111562000a16578283fd5b5062000a2586828701620008e8565b9150509250925092565b600060018060a01b03808716835280861660208401525083604083015260806060830152825180608084015262000a6e8160a085016020870162000c19565b601f01601f19169190910160a00195945050505050565b60208082526032908201527f4552433732313a207472616e7366657220746f206e6f6e20455243373231526560408201527131b2b4bb32b91034b6b83632b6b2b73a32b960711b606082015260800190565b6020808252601c908201527f4552433732313a20746f6b656e20616c7265616479206d696e74656400000000604082015260600190565b6020808252602a908201527f4552433732313a2062616c616e636520717565727920666f7220746865207a65604082015269726f206164647265737360b01b606082015260800190565b6020808252818101527f4552433732313a206d696e7420746f20746865207a65726f2061646472657373604082015260600190565b6020808252818101527f4f776e61626c653a2063616c6c6572206973206e6f7420746865206f776e6572604082015260600190565b6000821982111562000bd85762000bd862000ca3565b500190565b600081600019048311821515161562000bfa5762000bfa62000ca3565b500290565b60008282101562000c145762000c1462000ca3565b500390565b60005b8381101562000c3657818101518382015260200162000c1c565b83811115620002745750506000910152565b60028104600182168062000c5d57607f821691505b6020821081141562000c7f57634e487b7160e01b600052602260045260246000fd5b50919050565b600060001982141562000c9c5762000c9c62000ca3565b5060010190565b634e487b7160e01b600052601160045260246000fd5b634e487b7160e01b600052604160045260246000fd5b6124198062000cdf6000396000f3fe6080604052600436106101ee5760003560e01c806355f804b31161010d57806395d89b41116100a0578063c87b56dd1161006f578063c87b56dd1461052c578063d5abeb011461054c578063da3ef23f14610561578063e985e9c514610581578063f2fde38b146105a1576101ee565b806395d89b41146104c2578063a22cb465146104d7578063b88d4fde146104f7578063c668286214610517576101ee565b806370a08231116100dc57806370a0823114610458578063715018a6146104785780637f00c7a61461048d5780638da5cb5b146104ad576101ee565b806355f804b3146103ee5780635c975abb1461040e5780636352211e146104235780636c0360eb14610443576101ee565b806323b872dd1161018557806342842e0e1161015457806342842e0e14610361578063438b63001461038157806344a0d68a146103ae5780634f6ccce7146103ce576101ee565b806323b872dd146103065780632f745c59146103265780633ccfd60b1461034657806340c10f191461034e576101ee565b8063095ea7b3116101c1578063095ea7b31461029a57806313faede6146102ba57806318160ddd146102dc578063239c70ae146102f1576101ee565b806301ffc9a7146101f357806302329a291461022957806306fdde031461024b578063081812fc1461026d575b600080fd5b3480156101ff57600080fd5b5061021361020e366004611b4a565b6105c1565b6040516102209190611d63565b60405180910390f35b34801561023557600080fd5b50610249610244366004611b30565b6105ee565b005b34801561025757600080fd5b50610260610649565b6040516102209190611d6e565b34801561027957600080fd5b5061028d610288366004611bc8565b6106db565b6040516102209190611cce565b3480156102a657600080fd5b506102496102b5366004611b07565b61071e565b3480156102c657600080fd5b506102cf6107b6565b604051610220919061227e565b3480156102e857600080fd5b506102cf6107bc565b3480156102fd57600080fd5b506102cf6107c2565b34801561031257600080fd5b50610249610321366004611a2a565b6107c8565b34801561033257600080fd5b506102cf610341366004611b07565b610800565b610249610852565b61024961035c366004611b07565b6108b7565b34801561036d57600080fd5b5061024961037c366004611a2a565b610977565b34801561038d57600080fd5b506103a161039c3660046119de565b610992565b6040516102209190611d1f565b3480156103ba57600080fd5b506102496103c9366004611bc8565b610a50565b3480156103da57600080fd5b506102cf6103e9366004611bc8565b610a94565b3480156103fa57600080fd5b50610249610409366004611b82565b610aef565b34801561041a57600080fd5b50610213610b45565b34801561042f57600080fd5b5061028d61043e366004611bc8565b610b4e565b34801561044f57600080fd5b50610260610b83565b34801561046457600080fd5b506102cf6104733660046119de565b610c11565b34801561048457600080fd5b50610249610c55565b34801561049957600080fd5b506102496104a8366004611bc8565b610c9e565b3480156104b957600080fd5b5061028d610ce2565b3480156104ce57600080fd5b50610260610cf1565b3480156104e357600080fd5b506102496104f2366004611ade565b610d00565b34801561050357600080fd5b50610249610512366004611a65565b610dce565b34801561052357600080fd5b50610260610e07565b34801561053857600080fd5b50610260610547366004611bc8565b610e14565b34801561055857600080fd5b506102cf610e9a565b34801561056d57600080fd5b5061024961057c366004611b82565b610ea0565b34801561058d57600080fd5b5061021361059c3660046119f8565b610ef2565b3480156105ad57600080fd5b506102496105bc3660046119de565b610f20565b60006001600160e01b0319821663780e9d6360e01b14806105e657506105e682610f97565b90505b919050565b6105f6610fd7565b6001600160a01b0316610607610ce2565b6001600160a01b0316146106365760405162461bcd60e51b815260040161062d906120d3565b60405180910390fd5b6010805460ff1916911515919091179055565b60606000805461065890612321565b80601f016020809104026020016040519081016040528092919081815260200182805461068490612321565b80156106d15780601f106106a6576101008083540402835291602001916106d1565b820191906000526020600020905b8154815290600101906020018083116106b457829003601f168201915b5050505050905090565b60006106e682610fdb565b6107025760405162461bcd60e51b815260040161062d90612087565b506000908152600460205260409020546001600160a01b031690565b600061072982610b4e565b9050806001600160a01b0316836001600160a01b0316141561075d5760405162461bcd60e51b815260040161062d906121a0565b806001600160a01b031661076f610fd7565b6001600160a01b0316148061078b575061078b8161059c610fd7565b6107a75760405162461bcd60e51b815260040161062d90611f62565b6107b18383610ff8565b505050565b600d5481565b60085490565b600f5481565b6107d96107d3610fd7565b82611066565b6107f55760405162461bcd60e51b815260040161062d906121e1565b6107b18383836110eb565b600061080b83610c11565b82106108295760405162461bcd60e51b815260040161062d90611d81565b506001600160a01b03919091166000908152600660209081526040808320938352929052205490565b61085a610fd7565b6001600160a01b031661086b610ce2565b6001600160a01b0316146108915760405162461bcd60e51b815260040161062d906120d3565b60405133904780156108fc02916000818181858888f193505050506108b557600080fd5b565b60006108c16107bc565b60105490915060ff16156108d457600080fd5b600082116108e157600080fd5b600f548211156108f057600080fd5b600e546108fd8383612293565b111561090857600080fd5b610910610ce2565b6001600160a01b0316336001600160a01b0316146109425781600d5461093691906122bf565b34101561094257600080fd5b60015b8281116109715761095f8461095a8385612293565b611218565b806109698161235c565b915050610945565b50505050565b6107b183838360405180602001604052806000815250610dce565b6060600061099f83610c11565b905060008167ffffffffffffffff8111156109ca57634e487b7160e01b600052604160045260246000fd5b6040519080825280602002602001820160405280156109f3578160200160208202803683370190505b50905060005b82811015610a4857610a0b8582610800565b828281518110610a2b57634e487b7160e01b600052603260045260246000fd5b602090810291909101015280610a408161235c565b9150506109f9565b509392505050565b610a58610fd7565b6001600160a01b0316610a69610ce2565b6001600160a01b031614610a8f5760405162461bcd60e51b815260040161062d906120d3565b600d55565b6000610a9e6107bc565b8210610abc5760405162461bcd60e51b815260040161062d90612232565b60088281548110610add57634e487b7160e01b600052603260045260246000fd5b90600052602060002001549050919050565b610af7610fd7565b6001600160a01b0316610b08610ce2565b6001600160a01b031614610b2e5760405162461bcd60e51b815260040161062d906120d3565b8051610b4190600b9060208401906118ae565b5050565b60105460ff1681565b6000818152600260205260408120546001600160a01b0316806105e65760405162461bcd60e51b815260040161062d90612009565b600b8054610b9090612321565b80601f0160208091040260200160405190810160405280929190818152602001828054610bbc90612321565b8015610c095780601f10610bde57610100808354040283529160200191610c09565b820191906000526020600020905b815481529060010190602001808311610bec57829003601f168201915b505050505081565b60006001600160a01b038216610c395760405162461bcd60e51b815260040161062d90611fbf565b506001600160a01b031660009081526003602052604090205490565b610c5d610fd7565b6001600160a01b0316610c6e610ce2565b6001600160a01b031614610c945760405162461bcd60e51b815260040161062d906120d3565b6108b56000611232565b610ca6610fd7565b6001600160a01b0316610cb7610ce2565b6001600160a01b031614610cdd5760405162461bcd60e51b815260040161062d906120d3565b600f55565b600a546001600160a01b031690565b60606001805461065890612321565b610d08610fd7565b6001600160a01b0316826001600160a01b03161415610d395760405162461bcd60e51b815260040161062d90611edf565b8060056000610d46610fd7565b6001600160a01b03908116825260208083019390935260409182016000908120918716808252919093529120805460ff191692151592909217909155610d8a610fd7565b6001600160a01b03167f17307eab39ab6107e8899845ad3d59bd9653f200f220920489ca2b5937696c3183604051610dc29190611d63565b60405180910390a35050565b610ddf610dd9610fd7565b83611066565b610dfb5760405162461bcd60e51b815260040161062d906121e1565b61097184848484611284565b600c8054610b9090612321565b6060610e1f82610fdb565b610e3b5760405162461bcd60e51b815260040161062d90612151565b6000610e456112b7565b90506000815111610e655760405180602001604052806000815250610e93565b80610e6f846112c6565b600c604051602001610e8393929190611c0c565b6040516020818303038152906040525b9392505050565b600e5481565b610ea8610fd7565b6001600160a01b0316610eb9610ce2565b6001600160a01b031614610edf5760405162461bcd60e51b815260040161062d906120d3565b8051610b4190600c9060208401906118ae565b6001600160a01b03918216600090815260056020908152604080832093909416825291909152205460ff1690565b610f28610fd7565b6001600160a01b0316610f39610ce2565b6001600160a01b031614610f5f5760405162461bcd60e51b815260040161062d906120d3565b6001600160a01b038116610f855760405162461bcd60e51b815260040161062d90611e1e565b610f8e81611232565b50565b3b151590565b60006001600160e01b031982166380ac58cd60e01b1480610fc857506001600160e01b03198216635b5e139f60e01b145b806105e657506105e6826113e1565b3390565b6000908152600260205260409020546001600160a01b0316151590565b600081815260046020526040902080546001600160a01b0319166001600160a01b038416908117909155819061102d82610b4e565b6001600160a01b03167f8c5be1e5ebec7d5bd14f71427d1e84f3dd0314c0f7b2291e5b200ac8c7c3b92560405160405180910390a45050565b600061107182610fdb565b61108d5760405162461bcd60e51b815260040161062d90611f16565b600061109883610b4e565b9050806001600160a01b0316846001600160a01b031614806110d35750836001600160a01b03166110c8846106db565b6001600160a01b0316145b806110e357506110e38185610ef2565b949350505050565b826001600160a01b03166110fe82610b4e565b6001600160a01b0316146111245760405162461bcd60e51b815260040161062d90612108565b6001600160a01b03821661114a5760405162461bcd60e51b815260040161062d90611e9b565b6111558383836113fa565b611160600082610ff8565b6001600160a01b03831660009081526003602052604081208054600192906111899084906122de565b90915550506001600160a01b03821660009081526003602052604081208054600192906111b7908490612293565b909155505060008181526002602052604080822080546001600160a01b0319166001600160a01b0386811691821790925591518493918716917fddf252ad1be2c89b69c2b068fc378daa952ba7f163c4a11628f55a4df523b3ef91a4505050565b610b41828260405180602001604052806000815250611483565b600a80546001600160a01b038381166001600160a01b0319831681179093556040519116919082907f8be0079c531659141344cd1fd0a4f28419497f9722a3daafe3b4186f6b6457e090600090a35050565b61128f8484846110eb565b61129b848484846114b6565b6109715760405162461bcd60e51b815260040161062d90611dcc565b6060600b805461065890612321565b6060816112eb57506040805180820190915260018152600360fc1b60208201526105e9565b8160005b811561131557806112ff8161235c565b915061130e9050600a836122ab565b91506112ef565b60008167ffffffffffffffff81111561133e57634e487b7160e01b600052604160045260246000fd5b6040519080825280601f01601f191660200182016040528015611368576020820181803683370190505b5090505b84156110e35761137d6001836122de565b915061138a600a86612377565b611395906030612293565b60f81b8183815181106113b857634e487b7160e01b600052603260045260246000fd5b60200101906001600160f81b031916908160001a9053506113da600a866122ab565b945061136c565b6001600160e01b031981166301ffc9a760e01b14919050565b6114058383836107b1565b6001600160a01b0383166114215761141c816115d1565b611444565b816001600160a01b0316836001600160a01b031614611444576114448382611615565b6001600160a01b0382166114605761145b816116b2565b6107b1565b826001600160a01b0316826001600160a01b0316146107b1576107b1828261178b565b61148d83836117cf565b61149a60008484846114b6565b6107b15760405162461bcd60e51b815260040161062d90611dcc565b60006114ca846001600160a01b0316610f91565b156115c657836001600160a01b031663150b7a026114e6610fd7565b8786866040518563ffffffff1660e01b81526004016115089493929190611ce2565b602060405180830381600087803b15801561152257600080fd5b505af1925050508015611552575060408051601f3d908101601f1916820190925261154f91810190611b66565b60015b6115ac573d808015611580576040519150601f19603f3d011682016040523d82523d6000602084013e611585565b606091505b5080516115a45760405162461bcd60e51b815260040161062d90611dcc565b805181602001fd5b6001600160e01b031916630a85bd0160e11b1490506110e3565b506001949350505050565b600880546000838152600960205260408120829055600182018355919091527ff3f7a9fe364faab93b216da50a3214154f22a0a2b415b23a84c8169e8b636ee30155565b6000600161162284610c11565b61162c91906122de565b60008381526007602052604090205490915080821461167f576001600160a01b03841660009081526006602090815260408083208584528252808320548484528184208190558352600790915290208190555b5060009182526007602090815260408084208490556001600160a01b039094168352600681528383209183525290812055565b6008546000906116c4906001906122de565b600083815260096020526040812054600880549394509092849081106116fa57634e487b7160e01b600052603260045260246000fd5b90600052602060002001549050806008838154811061172957634e487b7160e01b600052603260045260246000fd5b600091825260208083209091019290925582815260099091526040808220849055858252812055600880548061176f57634e487b7160e01b600052603160045260246000fd5b6001900381819060005260206000200160009055905550505050565b600061179683610c11565b6001600160a01b039093166000908152600660209081526040808320868452825280832085905593825260079052919091209190915550565b6001600160a01b0382166117f55760405162461bcd60e51b815260040161062d90612052565b6117fe81610fdb565b1561181b5760405162461bcd60e51b815260040161062d90611e64565b611827600083836113fa565b6001600160a01b0382166000908152600360205260408120805460019290611850908490612293565b909155505060008181526002602052604080822080546001600160a01b0319166001600160a01b03861690811790915590518392907fddf252ad1be2c89b69c2b068fc378daa952ba7f163c4a11628f55a4df523b3ef908290a45050565b8280546118ba90612321565b90600052602060002090601f0160209004810192826118dc5760008555611922565b82601f106118f557805160ff1916838001178555611922565b82800160010185558215611922579182015b82811115611922578251825591602001919060010190611907565b5061192e929150611932565b5090565b5b8082111561192e5760008155600101611933565b600067ffffffffffffffff80841115611962576119626123b7565b604051601f8501601f191681016020018281118282101715611986576119866123b7565b60405284815291508183850186101561199e57600080fd5b8484602083013760006020868301015250509392505050565b80356001600160a01b03811681146105e957600080fd5b803580151581146105e957600080fd5b6000602082840312156119ef578081fd5b610e93826119b7565b60008060408385031215611a0a578081fd5b611a13836119b7565b9150611a21602084016119b7565b90509250929050565b600080600060608486031215611a3e578081fd5b611a47846119b7565b9250611a55602085016119b7565b9150604084013590509250925092565b60008060008060808587031215611a7a578081fd5b611a83856119b7565b9350611a91602086016119b7565b925060408501359150606085013567ffffffffffffffff811115611ab3578182fd5b8501601f81018713611ac3578182fd5b611ad287823560208401611947565b91505092959194509250565b60008060408385031215611af0578182fd5b611af9836119b7565b9150611a21602084016119ce565b60008060408385031215611b19578182fd5b611b22836119b7565b946020939093013593505050565b600060208284031215611b41578081fd5b610e93826119ce565b600060208284031215611b5b578081fd5b8135610e93816123cd565b600060208284031215611b77578081fd5b8151610e93816123cd565b600060208284031215611b93578081fd5b813567ffffffffffffffff811115611ba9578182fd5b8201601f81018413611bb9578182fd5b6110e384823560208401611947565b600060208284031215611bd9578081fd5b5035919050565b60008151808452611bf88160208601602086016122f5565b601f01601f19169290920160200192915050565b600084516020611c1f8285838a016122f5565b855191840191611c328184848a016122f5565b8554920191839060028104600180831680611c4e57607f831692505b858310811415611c6c57634e487b7160e01b88526022600452602488fd5b808015611c805760018114611c9157611cbd565b60ff19851688528388019550611cbd565b611c9a8b612287565b895b85811015611cb55781548a820152908401908801611c9c565b505083880195505b50939b9a5050505050505050505050565b6001600160a01b0391909116815260200190565b6001600160a01b0385811682528416602082015260408101839052608060608201819052600090611d1590830184611be0565b9695505050505050565b6020808252825182820181905260009190848201906040850190845b81811015611d5757835183529284019291840191600101611d3b565b50909695505050505050565b901515815260200190565b600060208252610e936020830184611be0565b6020808252602b908201527f455243373231456e756d657261626c653a206f776e657220696e646578206f7560408201526a74206f6620626f756e647360a81b606082015260800190565b60208082526032908201527f4552433732313a207472616e7366657220746f206e6f6e20455243373231526560408201527131b2b4bb32b91034b6b83632b6b2b73a32b960711b606082015260800190565b60208082526026908201527f4f776e61626c653a206e6577206f776e657220697320746865207a65726f206160408201526564647265737360d01b606082015260800190565b6020808252601c908201527f4552433732313a20746f6b656e20616c7265616479206d696e74656400000000604082015260600190565b60208082526024908201527f4552433732313a207472616e7366657220746f20746865207a65726f206164646040820152637265737360e01b606082015260800190565b60208082526019908201527f4552433732313a20617070726f766520746f2063616c6c657200000000000000604082015260600190565b6020808252602c908201527f4552433732313a206f70657261746f7220717565727920666f72206e6f6e657860408201526b34b9ba32b73a103a37b5b2b760a11b606082015260800190565b60208082526038908201527f4552433732313a20617070726f76652063616c6c6572206973206e6f74206f7760408201527f6e6572206e6f7220617070726f76656420666f7220616c6c0000000000000000606082015260800190565b6020808252602a908201527f4552433732313a2062616c616e636520717565727920666f7220746865207a65604082015269726f206164647265737360b01b606082015260800190565b60208082526029908201527f4552433732313a206f776e657220717565727920666f72206e6f6e657869737460408201526832b73a103a37b5b2b760b91b606082015260800190565b6020808252818101527f4552433732313a206d696e7420746f20746865207a65726f2061646472657373604082015260600190565b6020808252602c908201527f4552433732313a20617070726f76656420717565727920666f72206e6f6e657860408201526b34b9ba32b73a103a37b5b2b760a11b606082015260800190565b6020808252818101527f4f776e61626c653a2063616c6c6572206973206e6f7420746865206f776e6572604082015260600190565b60208082526029908201527f4552433732313a207472616e73666572206f6620746f6b656e2074686174206960408201526839903737ba1037bbb760b91b606082015260800190565b6020808252602f908201527f4552433732314d657461646174613a2055524920717565727920666f72206e6f60408201526e3732bc34b9ba32b73a103a37b5b2b760891b606082015260800190565b60208082526021908201527f4552433732313a20617070726f76616c20746f2063757272656e74206f776e656040820152603960f91b606082015260800190565b60208082526031908201527f4552433732313a207472616e736665722063616c6c6572206973206e6f74206f6040820152701ddb995c881b9bdc88185c1c1c9bdd9959607a1b606082015260800190565b6020808252602c908201527f455243373231456e756d657261626c653a20676c6f62616c20696e646578206f60408201526b7574206f6620626f756e647360a01b606082015260800190565b90815260200190565b60009081526020902090565b600082198211156122a6576122a661238b565b500190565b6000826122ba576122ba6123a1565b500490565b60008160001904831182151516156122d9576122d961238b565b500290565b6000828210156122f0576122f061238b565b500390565b60005b838110156123105781810151838201526020016122f8565b838111156109715750506000910152565b60028104600182168061233557607f821691505b6020821081141561235657634e487b7160e01b600052602260045260246000fd5b50919050565b60006000198214156123705761237061238b565b5060010190565b600082612386576123866123a1565b500690565b634e487b7160e01b600052601160045260246000fd5b634e487b7160e01b600052601260045260246000fd5b634e487b7160e01b600052604160045260246000fd5b6001600160e01b031981168114610f8e57600080fdfea26469706673582212201dc82b37758f2a165abcdd4b2da00d2b04cac60eec776a17296756faca10555964736f6c63430008000033",
  "immutableReferences": {},
  "source": "// SPDX-License-Identifier: MIT\n\npragma solidity ^0.8.0;\n\nimport \"@openzeppelin/contracts/token/ERC721/extensions/ERC721Enumerable.sol\";\nimport \"@openzeppelin/contracts/access/Ownable.sol\";\n\ncontract SmartContract is ERC721Enumerable, Ownable {\n  using Strings for uint256;\n\n  string public baseURI;\n  string public baseExtension = \".json\";\n  uint256 public cost = 0.02 ether;\n  uint256 public maxSupply = 10000;\n  uint256 public maxMintAmount = 20;\n  bool public paused = false;\n\n  constructor(\n    string memory _name,\n    string memory _symbol,\n    string memory _initBaseURI\n  ) ERC721(_name, _symbol) {\n    setBaseURI(_initBaseURI);\n\n    mint(msg.sender, 20);\n  }\n\n  // internal\n  function _baseURI() internal view virtual override returns (string memory) {\n    return baseURI;\n  }\n\n  // public\n  function mint(address _to, uint256 _mintAmount) public payable {\n    uint256 supply = totalSupply();\n    require(!paused);\n    require(_mintAmount > 0);\n    require(_mintAmount <= maxMintAmount);\n    require(supply + _mintAmount <= maxSupply);\n\n    if (msg.sender != owner()) {\n      require(msg.value >= cost * _mintAmount);\n    }\n\n    for (uint256 i = 1; i <= _mintAmount; i++) {\n      _safeMint(_to, supply + i);\n    }\n  }\n\n  function walletOfOwner(address _owner)\n    public\n    view\n    returns (uint256[] memory)\n  {\n    uint256 ownerTokenCount = balanceOf(_owner);\n    uint256[] memory tokenIds = new uint256[](ownerTokenCount);\n    for (uint256 i; i < ownerTokenCount; i++) {\n      tokenIds[i] = tokenOfOwnerByIndex(_owner, i);\n    }\n    return tokenIds;\n  }\n\n  function tokenURI(uint256 tokenId)\n    public\n    view\n    virtual\n    override\n    returns (string memory)\n  {\n    require(\n      _exists(tokenId),\n      \"ERC721Metadata: URI query for nonexistent token\"\n    );\n\n    string memory currentBaseURI = _baseURI();\n    return\n      bytes(currentBaseURI).length > 0\n        ? string(\n          abi.encodePacked(currentBaseURI, tokenId.toString(), baseExtension)\n        )\n        : \"\";\n  }\n\n  //only owner\n  function setCost(uint256 _newCost) public onlyOwner() {\n    cost = _newCost;\n  }\n\n  function setmaxMintAmount(uint256 _newmaxMintAmount) public onlyOwner() {\n    maxMintAmount = _newmaxMintAmount;\n  }\n\n  function setBaseURI(string memory _newBaseURI) public onlyOwner {\n    baseURI = _newBaseURI;\n  }\n\n  function setBaseExtension(string memory _newBaseExtension) public onlyOwner {\n    baseExtension = _newBaseExtension;\n  }\n\n  function pause(bool _state) public onlyOwner {\n    paused = _state;\n  }\n\n  function withdraw() public payable onlyOwner {\n    require(payable(msg.sender).send(address(this).balance));\n  }\n}\n",
  "sourcePath": "/Users/danielbotha/Desktop/Dapp/frontend_base_dapp/contracts/SmartContract.sol",
  "compiler": {
    "name": "solc",
    "version": "0.8.0+commit.c7dfd78e.Emscripten.clang"
  },
  "schemaVersion": "3.4.1",
  "updatedAt": "2021-08-31T22:34:37.790Z",
  "networkType": "ethereum",
  "devdoc": {
    "kind": "dev",
    "methods": {
      "approve(address,uint256)": {
        "details": "See {IERC721-approve}."
      },
      "balanceOf(address)": {
        "details": "See {IERC721-balanceOf}."
      },
      "getApproved(uint256)": {
        "details": "See {IERC721-getApproved}."
      },
      "isApprovedForAll(address,address)": {
        "details": "See {IERC721-isApprovedForAll}."
      },
      "name()": {
        "details": "See {IERC721Metadata-name}."
      },
      "owner()": {
        "details": "Returns the address of the current owner."
      },
      "ownerOf(uint256)": {
        "details": "See {IERC721-ownerOf}."
      },
      "renounceOwnership()": {
        "details": "Leaves the contract without owner. It will not be possible to call `onlyOwner` functions anymore. Can only be called by the current owner. NOTE: Renouncing ownership will leave the contract without an owner, thereby removing any functionality that is only available to the owner."
      },
      "safeTransferFrom(address,address,uint256)": {
        "details": "See {IERC721-safeTransferFrom}."
      },
      "safeTransferFrom(address,address,uint256,bytes)": {
        "details": "See {IERC721-safeTransferFrom}."
      },
      "setApprovalForAll(address,bool)": {
        "details": "See {IERC721-setApprovalForAll}."
      },
      "supportsInterface(bytes4)": {
        "details": "See {IERC165-supportsInterface}."
      },
      "symbol()": {
        "details": "See {IERC721Metadata-symbol}."
      },
      "tokenByIndex(uint256)": {
        "details": "See {IERC721Enumerable-tokenByIndex}."
      },
      "tokenOfOwnerByIndex(address,uint256)": {
        "details": "See {IERC721Enumerable-tokenOfOwnerByIndex}."
      },
      "tokenURI(uint256)": {
        "details": "See {IERC721Metadata-tokenURI}."
      },
      "totalSupply()": {
        "details": "See {IERC721Enumerable-totalSupply}."
      },
      "transferFrom(address,address,uint256)": {
        "details": "See {IERC721-transferFrom}."
      },
      "transferOwnership(address)": {
        "details": "Transfers ownership of the contract to a new account (`newOwner`). Can only be called by the current owner."
      }
    },
    "version": 1
  },
  "userdoc": {
    "kind": "user",
    "methods": {},
    "version": 1
  }
}